:10000000F8FF002011040000CD480000CD4800009A
:10001000CD480000CD480000CD480000CD4800008C
:10002000CD480000CD480000CD480000CD4800007C
:10003000CD480000CD480000CD480000CD4800006C
:10004000CD480000CD480000CD480000CD4800005C
:10040000FFFFFFFFFFFFFFFFFFFFFFFFFEFFFFFFFD
:1004100062B606F041FDFEE7DFF800F0510CFF1F69
:10042000DFF800F0AD0CFF1FDFF800F02D0CFF1F10
:10043000012210F01F018A40DFF85C1640B240092B
:1004400041F82020704740B2002809D50901DFF8A3
:100450004C2640B210F00F00104400F8041C04E0D9
:100460000901DFF83C2640B211547047B5EE400A4E
:10047000F1EE10FA02D5B1EE400AFFE7704780B501
:100480009B2002F001FE002804D00120DFF81416A2
:10049000086004E05FF0FF30DFF8081608609C2079
:1004A00002F0F2FD002804D00120DFF8FC150860FE
:1004B00004E05FF0FF30DFF8F015086001BD80B5A3
:1004C000282002F005FE292002F002FE2A2002F078
:1004D000FFFD2B2002F0FCFD2C2002F0F9FD2D2069
:1004E00002F0F6FD2E2002F0F3FD01BDF8B502206A
:1004F00003F0CCF9DFF8B4150880DFF8B405006824
:1005000003F0F8F904000D00DFF8A005B0F90000D1
:1005100003F014FA5FF06632DFF8983503F020FA42
:100520000022DFF8943503F01BFA22002B0003F0C1
:100530003BFB03F0F5FBDFF878150860DFF86C058E
:10054000B0F9000003F0FAF90022DFF8703503F08B
:100550001BFC0022DFF8683503F002FA03F0E0FB31
:1005600000EE100AF2EE040A20EE200ADFF854052D
:1005700080ED000A022003F09DF9DFF83005B0F9A4
:10058000000000EE100AB8EEC00ADFF83C0580ED6E
:10059000000A002009E0DFF8341501EB800149680A
:1005A000DFF8282542F82010401C0328F3DBDFF891
:1005B0001C05DFF814150968C160DFF80C0500217F
:1005C000016000201BE0411C00EE101AB8EEC00ACA
:1005D000DFF8F81401EB8001D1ED000A20EE200ACB
:1005E000F2EE040A80EE200ADFF8DC14D1ED000AF6
:1005F00030EE200ADFF8D01481ED000A401C0428F8
:10060000E1DBDFF8CC04008800EE100AB8EE400A07
:10061000DFF8B404D0ED000A30EE600ADFF8B4046D
:1006200080ED000ADFF8B004B0F9000000EE100A17
:10063000B8EEC00ADFF89C04D0ED000A20EE200AD4
:10064000DFF8980480ED000ADFF89404006803F0F6
:1006500051F906000F00DFF87C04006803F04AF946
:1006600004000D00DFF87C04B0F9000003F066F927
:100670000022DFF8743403F073F922002B0003F03A
:1006800083FB32003B0003F08FFA03F049FBDFF8F5
:1006900050140860DFF854040068404200EE100A6D
:1006A000B8EEC00ADFF83804D0ED000AB4EE600AF4
:1006B000F1EE10FA0BDBDFF834040068404200EE84
:1006C000100AB8EEC00ADFF8180480ED000ADFF85F
:1006D0001C0490ED000AB8EEC00ADFF80404D0ED67
:1006E000000AF4EE400AF1EE10FA09DBDFF8FC0331
:1006F00090ED000AB8EEC00ADFF8E40380ED000ACE
:10070000DFF8EC03DFF8EC1309680160DFF8CC03D5
:1007100090ED000ADFF8C803D0ED000A30EE200AA1
:10072000DFF8D00380ED000ADFF8C80390ED000A7F
:10073000DFF8080DD0ED000AB4EE600AF1EE10FA11
:1007400005DBDFF8B003DFF8F41C09680160DFF8AF
:10075000EC0C90ED000AB1EE400ADFF89803D0ED02
:10076000000AB4EE600AF1EE10FA08DBE148DFF8A7
:10077000CC1C91ED000AB1EE400A80ED000AF1BDFB
:1007800080B5DD48006801283AD1DA4890ED000ACA
:10079000BDEEC00A10EE100A00B200EE100AB8EE6C
:1007A000C00AF2EE040A80EE200ABDEEC00A10EE86
:1007B000100ADFF8941C0880DFF88C0CB0F90000F8
:1007C00000280DD400220021012002F062FFDFF892
:1007D000780CB0F900200121012002F05AFF0FE04F
:1007E000DFF8640CB0F9000003F097FB0200002171
:1007F000012002F04EFF00220121012002F049FFFA
:1008000001BD80B5BD480068DFF8401C0968084399
:10081000002804D001214B2002F0DBFB03E0002183
:100820004B2002F0D6FB01BD80B5012201218020C2
:1008300002F070FB01220121812002F06BFB0122FA
:100840000121822002F066FB01220121832002F0B7
:1008500061FB03F017FC01BD80B5002343F698222D
:100860000021012002F05BFE002343F698220121C3
:10087000012002F054FE01BD80B5DFF8D80B0388DB
:100880004FF496720721002002F049FE01BD80B5A9
:1008900040F203110D2003F07DFD40F203110E2004
:1008A00003F078FD40F203110F2003F073FD40F2D6
:1008B0000311102003F06EFD40F20311072003F036
:1008C00069FD40F20311112003F064FD01BD80B504
:1008D00040F203119A2003F05DFD40F203119C20C9
:1008E00003F058FD40F203119B2003F053FD40F24A
:1008F00003110C2003F04EFD01BD80B50122012142
:100900006F2002F007FB01220121402002F002FBD0
:10091000002201214B2002F0FDFA01BD38B500256F
:100920000024002009E0DFF8301B01EB800149685A
:10093000DFF8242B42F82010401C0328F3DB0025AD
:1009400006E00121282002F0CAFC14FA80F46D1C94
:10095000052DF6DB0520B4FBF0F000EE100AB8EE32
:10096000400ADFF8F40A80ED030A0024002009E0C1
:10097000DFF8EC1A01EB80014968DFF8E42A42F85D
:100980002010401C0328F3DB002506E0012129206C
:1009900002F0A5FC14FA80F46D1C052DF6DB052091
:1009A000B4FBF0F000EE100AB8EE400ADFF8B00A2F
:1009B00080ED030A0024002009E0DFF8A81A01EB0B
:1009C00080014968DFF89C2A42F82010401C032867
:1009D000F3DB002506E001212A2002F080FC14FA56
:1009E00080F46D1C052DF6DB0520B4FBF0F000EE65
:1009F000100AB8EE400ADFF86C0A80ED030A002402
:100A0000002009E0DFF8601A01EB80014968DFF897
:100A1000582A42F82010401C0328F3DB002506E08A
:100A200001212B2002F05BFC14FA80F46D1C052DD3
:100A3000F6DB0520B4FBF0F000EE100AB8EE400A39
:100A4000DFF8240A80ED030A0024002009E0DFF823
:100A50001C1A01EB80014968DFF8102A42F82010C7
:100A6000401C0328F3DB002506E001212C2002F0C6
:100A700036FC14FA80F46D1C052DF6DB0520B4FB62
:100A8000F0F000EE100AB8EE400ADFF8E00980ED61
:100A9000030A002431BD000000E100E018ED00E091
:100AA00000E400E0BC0EFF1FB80EFF1F4C0FFF1F3D
:100AB000CC0EFF1F66661C4000408F40000059406E
:100AC00000BCBB40E40EFF1FF80EFF1FE80EFF1F27
:100AD0004A0FFF1F080FFF1FF60BFF1F0C0FFF1F12
:100AE000040FFF1FF80BFF1F000024401004FF1F1E
:100AF000FC0EFF1F000FFF1F980EFF1F9C0EFF1F15
:100B000080B500201BE0411C00EE101AB8EEC00AB0
:100B1000DFF8441901EB8001D1ED000A20EE200A34
:100B2000F2EE040A80EE200ADFF84419D1ED000A43
:100B300030EE200ADFF8381981ED000A401C042845
:100B4000E1DB00201BE0411C00EE101AB8EEC00AE9
:100B5000DFF80C1901EB8001D1ED000A20EE200A2C
:100B6000F2EE040A80EE200ADFF80819D1ED000A3F
:100B700030EE200ADFF8FC1881ED000A401C042842
:100B8000E1DB00201BE0411C00EE101AB8EEC00AA9
:100B9000DFF8D01801EB8001D1ED000A20EE200A29
:100BA000F2EE040A80EE200ADFF8CC18D1ED000A3C
:100BB00030EE200ADFF8C01881ED000A401C04283E
:100BC000E1DB00201BE0411C00EE101AB8EEC00A69
:100BD000DFF8941801EB8001D1ED000A20EE200A25
:100BE000F2EE040A80EE200ADFF89018D1ED000A38
:100BF00030EE200ADFF8841881ED000A401C04283A
:100C0000E1DB00201BE0411C00EE101AB8EEC00A28
:100C1000DFF8581801EB8001D1ED000A20EE200A20
:100C2000F2EE040A80EE200ADFF85418D1ED000A33
:100C300030EE200ADFF8481881ED000A401C042835
:100C4000E1DBDFF84008DFF8281809680160DFF809
:100C50003808DFF8201809680160DFF83008DFF88D
:100C6000181809680160DFF82808DFF8101809680B
:100C70000160DFF82008DFF8081809680160DFF874
:100C8000140890ED000ADFEDAF0AB4EE600AF1EE51
:100C900010FA45DBDFF8F40790ED000ADFF8F00703
:100CA000D0ED000A30EE600AFFF7E0FBDFEDA60AA8
:100CB000B4EE600AF1EE10FA32D5DFF8C80790ED15
:100CC000000ADFF8C407D0ED000A30EE600AFFF733
:100CD000CDFBDFED9E0AB4EE600AF1EE10FA1FD5EF
:100CE000DFF8AC0790ED000ADFED990AB4EE600A78
:100CF000F1EE10FA14DBDFF8940790ED000ADFED57
:100D0000940AB4EE600AF1EE10FA09DB0120DFF874
:100D100088170870DFF88407DFF884170968016016
:100D2000DFF874070078DFF87C170870DFF87007C9
:100D300090ED000ADFF86407D0ED000A30EE600A9B
:100D4000DFED840AB4EE600AF1EE10FA0CDBDFF896
:100D50004C0790ED000AB5EE400AF1EE10FA03D010
:100D60000020DFF834170870DFF838070078012812
:100D700019D1DFF824070078002814D1DFF82807FC
:100D80000068401CDFF8201708600C2002F07CF996
:100D9000002808D1DFF810070068012803D10120DE
:100DA000DFF808170870DFF8F0060078012804D192
:100DB0000120DFF89816086003E00020DFF88C16A9
:100DC0000860DFF8D4060078002840F016820C2076
:100DD00002F05AF9002840F06B81DFF8D406007861
:100DE000002840F0BE80DFF8CC060068002854D10F
:100DF000DFF8A00690ED000ADFEDC80AB4EE600A45
:100E0000F1EE10FA44D5DFF8840690ED000ADFF821
:100E10008006D0ED000A30EE600AFFF727FBDFED19
:100E2000BF0AB4EE600AF1EE10FA31D5DFF86006C1
:100E300090ED000ADFEDCA0AB4EE600AF1EE10FA96
:100E400026DBDFF8480690ED000ADFEDC50AB4EEB8
:100E5000600AF1EE10FA1BDBDFF8280690ED000ABD
:100E6000DFF82406D0ED000A30EE600AFFF7FEFA44
:100E7000DFEDBC0AB4EE600AF1EE10FA08D50120ED
:100E8000DFF8341608600120DFF830160870B4E18E
:100E90000020DFF824160860AFE1DFF8F80590EDD8
:100EA000000ADFED2A0AB4EE600AF1EE10FA53D51B
:100EB000DFF8D80590ED000ADFF8D405D0ED000A80
:100EC00030EE600AFFF7D2FADFED200AB4EE600AD6
:100ED000F1EE10FA40D5DFF8B80590ED000ADFED2D
:100EE000C40AB4EE600AF1EE10FA35DBDFF89C05B7
:100EF00090ED000ADFEDBE0AB4EE600AF1EE10FAE2
:100F00002ADBDFF8800590ED000ADFF87C05D0EDE4
:100F1000000A30EE600AFFF7A9FADFED920AB4EE9C
:100F2000600AF1EE10FA17D50120DFF89415086079
:100F30000120DFF8901508700020DFF88015087098
:100F40005BE100BF004035450000484400007A44A2
:100F50000180BB44010040400020DFF864150860B8
:100F60004BE1DFF850050068002850D1DFF8240578
:100F700090ED000ADFED690AB4EE600AF1EE10FAB6
:100F800040D5DFF8080590ED000ADFF80405D0ED44
:100F9000000A30EE600AFFF769FADFED600AB4EE8E
:100FA000600AF1EE10FA2DD5DFF8E40490ED000AA6
:100FB000DFED6B0AB4EE600AF1EE10FA22DBDFF827
:100FC000CC0490ED000ADFED660AB4EE600AF1EEA3
:100FD00010FA17DBDFF8AC0490ED000ADFF8A80484
:100FE000D0ED000A30EE600AFFF740FADFED5D0A4F
:100FF000B4EE600AF1EE10FA04D50120DFF8B8145F
:101000000860FAE00020DFF8B0140860F5E0DFF8CF
:10101000840490ED000ADFEDBA0AB4EE600AF1EE46
:1010200010FA40D5DFF8640490ED000ADFF86004A0
:10103000D0ED000A30EE600AFFF718FADFEDB00AD3
:10104000B4EE600AF1EE10FA2DD5DFF8440490ED0D
:10105000000ADFED670AB4EE600AF1EE10FA22DB57
:10106000DFF8280490ED000ADFED610AB4EE600AB3
:10107000F1EE10FA17DBDFF80C0490ED000ADFF850
:101080000804D0ED000A30EE600AFFF7EFF9DFED5B
:10109000350AB4EE600AF1EE10FA04D50120DFF84B
:1010A00020140860A9E00020DFF814140860A4E010
:1010B000DFF800040068002856D1DFF8D80390ED6F
:1010C000000ADFED160AB4EE600AF1EE10FA43D51D
:1010D000DFF8B80390ED000ADFF8B403D0ED000AA2
:1010E00030EE600AFFF7C2F9DFED0C0AB4EE600AD9
:1010F000F1EE10FA30D5DFF8980390ED000ADFED3D
:10110000180AB4EE600AF1EE10FA25DBDFF87C0372
:1011100090ED000ADFED120A02E000BF0080894472
:10112000B4EE600AF1EE10FA16DBDFF8580390ED2A
:10113000000AD548D0ED000A30EE600AFFF796F9B4
:10114000DFED080AB4EE600AF1EE10FA04D50120D2
:10115000DFF86413086050E00020D74908604CE0D5
:101160000100AF4400001644CA4890ED000ADFEDCC
:10117000640AB4EE600AF1EE10FA3BD5C34890ED74
:10118000000AC348D0ED000A30EE600AFFF76EF99E
:10119000DFED5B0AB4EE600AF1EE10FA2AD5BC4826
:1011A00090ED000ADFEDA60AB4EE600AF1EE10FA47
:1011B00020DBB64890ED000ADFEDA10AB4EE600A2C
:1011C000F1EE10FA16DBAF4890ED000AAE48D0ED14
:1011D000000A30EE600AFFF749F9DFED9A0AB4EE33
:1011E000600AF1EE10FA05D50120B549086004E067
:1011F0000180A2440020B2490860A34890ED000A93
:10120000A048D0ED000A30EE600A9E48D0ED000AFA
:101210009D4890ED001A70EE810A80EE200ADFF8FA
:10122000480B80ED000A9A4890ED000A9748D0EDEF
:10123000000A30EE600A9548D0ED000A944890ED1F
:10124000001A70EE810A80EE200ADFF8200B80ED94
:10125000000ADFF81C0BDFF8101B09680160DFF8DB
:10126000140BDFF8081B09680160DFF8FC0A90ED39
:10127000000AF2EE000A20EE200AF2EE040A80EEE6
:10128000200ADFF8E80AD0ED000AB0EE001A60EE9E
:10129000810AB2EE041AC0EE810A30EE200ADFEDB8
:1012A0006C0A20EE200ADFF8D40A80ED000A0C2038
:1012B00001F0EAFE002820D17C48007801281CD1EA
:1012C0007B48007800280CD1DFF8B00A90ED000AC6
:1012D000FBEE0C0A30EE200ADFF8A00A80ED000ACF
:1012E0000BE0DFF8980A90ED000AF3EE0C0A30EEFE
:1012F000200ADFF8880A80ED000A00200CE000BF19
:1013000000007A44DFF87C1A01EB80014968DFF8BD
:10131000742A42F82010401C0528F3DBDFF8640A29
:10132000DFF8581A09684161DFF8400A90ED000AB9
:10133000FFF79CF8DFED460A20EE200AF1EE040AE2
:10134000B4EE600AF1EE10FA15D5DFF81C0A90ED44
:10135000000AFFF78BF8DFED3E0A20EE200ADFEDF2
:101360003F0AB4EE600AF1EE10FA04DB0120DFF868
:10137000181A086003E00020DFF80C1A08604148E2
:1013800090ED000AF3EE090AB4EE600AF1EE10FAED
:1013900031D53D4890ED000AF3EE090AB4EE600A3B
:1013A000F1EE10FA27D5394890ED000AF3EE090A5C
:1013B000B4EE600AF1EE10FA1DD5354890ED000A42
:1013C000F3EE090AB4EE600AF1EE10FA13D5DFF875
:1013D000BC090068401CDFF8B4190860DFF8AC09EC
:1013E0000068052807DB0520DFF8A0190860012048
:1013F000DFF89C190860DFF88C0990ED050ADFF82A
:101400008409D0ED000A30EE600ADFF8880980ED2B
:10141000000A1748002101601648002101601648A3
:10142000002101601548002101601548002101607C
:10143000DFF8A40C0021016001BD00001404FF1FAF
:1014400001009644000016444E0FFF1FA00EFF1F20
:1014500000002042F00BFF1F000EFF1F0100A04103
:10146000100EFF1F200EFF1F300EFF1F400EFF1F2C
:10147000880EFF1F8C0EFF1F780EFF1F7C0EFF1FB4
:101480006C0EFF1F900EFF1F940EFF1F800EFF1F9C
:10149000840EFF1F700EFF1F590FFF1FC80EFF1F86
:1014A000CC0EFF1F5A0FFF1FC40EFF1F550FFF1F4B
:1014B000520FFF1FB40EFF1F9C0EFF1F580FFF1F80
:1014C000B00EFF1F570FFF1F38B5DFF8CC0800889C
:1014D00002F0BEFF04000D00DFF8A00890ED000A46
:1014E000FEF7C4FF10EE100A02F004FA0022DFF843
:1014F000AC3802F035FA22002B0002F055FB02F066
:101500000FFCDFF8E01B0860DFF85C0890ED000AD4
:10151000FEF7ACFFDFEDBE0A20EE200AF1EE040A72
:10152000B4EE600AF1EE10FA2FD5DFF8400890ED26
:10153000000AFEF79BFFDFEDB60A20EE200AF1EE6F
:10154000040AB4EE600AF1EE10FA1ED5DFF89C0B27
:1015500090ED000ADFEDAF0AB4EE600AF1EE10FA8A
:1015600013DBDFF88C0B90ED000ADFEDAA0AB4EE76
:10157000600AF1EE10FA08DBDFF8680BDFF8741B85
:1015800001603220DFF8701B08800C2001F07CFD28
:10159000002840F03882DFF8640B0078002840F023
:1015A0001181DFF85C0B0068012809D1DFF8540BCA
:1015B000DFF8541B096801600020DFF8441B086055
:1015C000DFF8400B90ED000AB5EE400AF1EE10FA9C
:1015D0001FD0DFF8340B90ED000ADFF8280BD0EDB8
:1015E000000A30EE600ADFEDD90AB4EE600AF1EECF
:1015F00010FA0ED5DFF8140B01684FF44870414320
:1016000000EE101AB8EEC00ADFF8040B80ED000AF5
:101610001AE0DFF8D00A90ED000ADFF86007D0ED9D
:10162000000A20EE200ADFF8D00A008800EE900AB7
:10163000F8EE600ADFF85C0790ED001A00EE810A10
:10164000DFF8CC0A80ED000ADFF8B80A90ED000A56
:10165000B5EE400AF1EE10FA15D0DFF8AC0A90EDC5
:10166000000ADFF8A00AD0ED000A30EE600ADFEDD4
:10167000DB0AB4EE600AF1EE10FA04D50520DFF8BB
:10168000AC1B088005E0DFF8A80B0088DFF89C1B86
:101690000880DFF8700A90ED000AB5EE400AF1EE1E
:1016A00010FA14D0DFF8600A90ED000ADFF8540A4F
:1016B000D0ED000A30EE600ADFEDC90AB4EE600A30
:1016C000F1EE10FA03DB0120DFF86C1B0860DFF895
:1016D000680B0068012840F0C382DFF8600B0068E7
:1016E000012805D1DFF8580BDFF81C1A09680160E2
:1016F000DFF84C0B90ED000AB5EE400AF1EE10FA5F
:101700001FD0DFF8040A90ED000ADFF8340BD0EDAB
:10171000000A30EE600ADFED8D0AB4EE600AF1EEE9
:1017200010FA0ED5DFF81C0B01684FF448704143E6
:1017300000EE101AB8EEC00ADFF8D40980ED000AF6
:101740001AE0DFF8A00990ED000ADFF83006D0EDCE
:10175000000A20EE200ADFF8A009008800EE900AB7
:10176000F8EE600ADFF82C0690ED001A00EE810A10
:10177000DFF89C0980ED000ADFF8C40A90ED000A4A
:10178000B5EE400AF1EE10FA15D0DFF87C0990EDC5
:10179000000ADFF8AC0AD0ED000A30EE600ADFED97
:1017A0008F0AB4EE600AF1EE10FA04D50520DFF8D6
:1017B0007C1A088054E2DFF8780A0088DFF86C1A97
:1017C00008804DE2DFF838090068012809D1DFF808
:1017D0003409DFF83419096801600020DFF82019A6
:1017E0000860DFF8200990ED000AB5EE400AF1EE3E
:1017F00010FA25D0DFF8100990ED000ADFF804098F
:10180000D0ED000A30EE600ADFED500A04E000BFC0
:10181000000020420100FA44B4EE600AF1EE10FA32
:101820000ED5DFF8E8080168DFF81C0A414300EE36
:10183000101AB8EEC00ADFF8D80880ED000A1AE0E6
:10184000DFF8A00890ED000ADFF83005D0ED000ABF
:1018500020EE200ADFF8A008008800EE900AF8EEDB
:10186000600ADFF8300590ED001A00EE810ADFF81B
:10187000A00880ED000ADFF88C0890ED000AB5EEB4
:10188000400AF1EE10FA15D0DFF87C0890ED000A5E
:10189000DFF87008D0ED000A30EE600ADFED4F0A85
:1018A000B4EE600AF1EE10FA04D50520DFF87C19D9
:1018B000088005E0DFF878090088DFF870190880F3
:1018C000DFF8400890ED000AB5EE400AF1EE10FA9C
:1018D00014D0DFF8340890ED000ADFF82808D0EDC6
:1018E000000A30EE600ADFED3E0AB4EE600AF1EE67
:1018F00010FA03DB0120DFF840190860DFF838092F
:101900000068012840F0AC81DFF830090068012848
:1019100005D1DFF82C09DFF8F01709680160DFF85E
:10192000200990ED000AB5EE400AF1EE10FA23D03E
:10193000DFF8D40790ED000ADFF80409D0ED000AC3
:1019400030EE600ADFEDC20A02E000BFCDCCCC3D34
:10195000B4EE600AF1EE10FA0ED5DFF8E80801687F
:10196000DFF8E408414300EE101AB8EEC00ADFF8D1
:10197000A00780ED000A1AE0DFF8680790ED000A82
:10198000DFF8F803D0ED000A20EE200ADFF8680740
:10199000008800EE900AF8EE600ADFF8F80390ED98
:1019A000001A00EE810ADFF8680780ED000ADFF810
:1019B000900890ED000AB5EE400AF1EE10FA1BD047
:1019C000DFF8440790ED000ADFF87408D0ED000A54
:1019D00030EE600ADFED010A04E000BF9A99993EFB
:1019E0000100803FB4EE600AF1EE10FA04D5052044
:1019F000DFF83818088033E1DFF834080088DFF8B2
:101A00002C1808802CE1DFF8F8060068012809D1BD
:101A1000DFF8F006DFF8F016096801600020DFF853
:101A2000E0160860DFF8DC0690ED000AB5EE400A2B
:101A3000F1EE10FA1FD0DFF8D00690ED000ADFF8C3
:101A4000C406D0ED000A30EE600ADFEDC40AB4EE41
:101A5000600AF1EE10FA0ED5DFF8B00601684FF417
:101A60004870414300EE101AB8EEC00ADFF8A00635
:101A700080ED000A18E0DFF86C0690ED000ABF4820
:101A8000D0ED000A20EE200ADFF86C06008800EE98
:101A9000900AF8EE600ABF4890ED001A00EE810A45
:101AA000DFF86C0680ED000ADFF8580690ED000ABA
:101AB000B5EE400AF1EE10FA15D0DFF84C0690EDC5
:101AC000000ADFF84006D0ED000A30EE600ADFEDD4
:101AD000A40AB4EE600AF1EE10FA04D50520DFF88E
:101AE0004C17088005E0DFF848070088DFF83C174E
:101AF0000880DFF8100690ED000AB5EE400AF1EE1E
:101B000010FA14D0DFF8000690ED000ADFF8F405B3
:101B1000D0ED000A30EE600ADFED920AB4EE600A02
:101B2000F1EE10FA03DB0120DFF80C170860DFF894
:101B300008070068012840F09380DFF8000700687C
:101B4000012805D1DFF8F806DFF8BC150968016047
:101B5000DFF8EC0690ED000AB5EE400AF1EE10FA5F
:101B60001FD0DFF8A40590ED000ADFF8D406D0ED11
:101B7000000A30EE600ADFED790AB4EE600AF1EE99
:101B800010FA0ED5DFF8BC0601684FF448704143E7
:101B900000EE101AB8EEC00ADFF8740580ED000AF6
:101BA00018E0DFF8400590ED000A7448D0ED000A17
:101BB00020EE200ADFF84005008800EE900AF8EEDB
:101BC000600A744890ED001A00EE810ADFF84005C3
:101BD00080ED000ADFF8680690ED000AB5EE400AD5
:101BE000F1EE10FA15D0DFF8200590ED000ADFF8CD
:101BF0005006D0ED000A30EE600ADFED590AB4EE6F
:101C0000600AF1EE10FA04D50420DFF820160880EF
:101C100026E0DFF82C0690ED000AB5EE400AF1EE62
:101C200010FA17D0DFF8E00490ED000ADFF8100694
:101C3000D0ED000A30EE600AF6EE000AB4EE600A5B
:101C4000F1EE10FA06D50820DFF8E015088007E06D
:101C5000CDCC4C3DDFF8D8050088DFF8D0150880E2
:101C6000DFF8940A0068012819DADFF8900A007892
:101C7000012814D1DFF8900490ED000ADFF8800A03
:101C8000D0ED000A30EE600AF0EE080AB4EE600A09
:101C9000F1EE10FA03D50C20DFF890150880DFF87C
:101CA000580A0068022819DADFF8500A007801287B
:101CB00014D1DFF8540490ED000ADFF8440AD0EDA7
:101CC000000A30EE600AF7EE000AB4EE600AF1EEA8
:101CD00010FA03D51220DFF8541508802A4800684E
:101CE000012805D1DFF81C0A0088DFF840150880BC
:101CF000DFF81C0490ED000ADFED1F0AB4EE600A65
:101D0000F1EE10FA03DBDFF808041B490160DFF88D
:101D1000000490ED000ADFED1A0AB4EE600AF1EE5D
:101D200010FA04D5DFF8E803DFF8BC1A0160DFF829
:101D3000E00390ED000ABDEEC00A10EE100ADFF8D5
:101D4000AC1A09884018DFF8401C0860DFF8380C2E
:101D500002680721002001F09CFC31BDCDCCCC3DB8
:101D60009A99993E0100803F100FFF1F140FFF1F2B
:101D7000180FFF1F1C0FFF1F0000FA44680EFF1F03
:101D8000FFFFF9C4500EFF1FA40EFF1FAC0EFF1F74
:101D9000A80EFF1F200FFF1FEC0BFF1F00002040AD
:101DA00080B50C2001F070F9002840F08481DFF844
:101DB0004C030078012840F0A780DFF8340A00685F
:101DC0003D2807D3DFF864040088401CDFF85C146A
:101DD00008808EE0DFF8180A0068142809D2DFF8BE
:101DE000100A0068002804D00020DFF840140880A2
:101DF0007FE0DFF8FC0900681E280CD2DFF8F0094C
:101E00000068002807D0DFF8240400880B38DFF8CA
:101E10001C1408806DE0DFF8D809006823280CD274
:101E2000DFF8CC090068002807D0DFF8000400883C
:101E30000938DFF8F81308805BE0DFF8B4090068C0
:101E400028280CD2DFF8A8090068002807D0DFF89E
:101E5000DC030088801FDFF8D413088049E0DFF836
:101E6000900900682D280CD2DFF88409006800284A
:101E700007D0DFF8B8030088C01EDFF8B013088071
:101E800037E0DFF86C09006832280CD2DFF860090F
:101E90000068002807D0DFF894030088401EDFF8B0
:101EA0008C13088025E0DFF848090068422807D332
:101EB000DFF878030088C01CDFF87013088018E092
:101EC000DFF82C0900684C2807D3DFF8600300888E
:101ED000401DDFF8581308800BE0DFF81409006894
:101EE000562806D3DFF844030088C01DDFF83C13F2
:101EF0000880DFF8040A0078012840F0DC800A201E
:101F0000DFF828130880D6E0DFF8EC090078012814
:101F100016D17D4890ED000ADFED700AB4EE600A3C
:101F2000F1EE10FA0CDB784890ED000ADFED6C0A58
:101F3000B4EE600AF1EE10FA02D50020BB49088029
:101F4000DFF8B409007801281BD16F4890ED000A32
:101F5000DFF8AC07D0ED000A30EE600ADFED620A70
:101F6000B4EE600AF1EE10FA0BDBDFF8940790EDA7
:101F7000000AB5EE400AF1EE10FA02D00020AB499B
:101F80000880DFF81C0A0078012819D15E4890ED1E
:101F9000000A5C48D0ED000A30EE600ADFED930ADB
:101FA000B4EE600AF1EE10FA0ADB564890ED000A32
:101FB000B5EE400AF1EE10FA02D004209B490880E9
:101FC000DFF8DC090078012828D14F4890ED000A9D
:101FD0004C48D0ED000A30EE600ADFED910AB4EE15
:101FE000600AF1EE10FA19DB474890ED000A454807
:101FF000D0ED000A30EE600ADFED8A0AB4EE600A26
:10200000F1EE10FA0AD53F4890ED000AB5EE400A0D
:10201000F1EE10FA02D0122084490880DFF880091E
:102020000078012819D1384890ED000A8448D0ED95
:10203000000A30EE600ADFED7C0AB4EE600AF1EED1
:1020400010FA0ADB7E4890ED000AB5EE400AF1EE88
:1020500010FA02D0042075490880DFF8440900789E
:10206000012828D1284890ED000A7548D0ED000AD3
:1020700030EE600ADFED6A0AB4EE600AF1EE10FAA3
:1020800019DB214890ED000A6D48D0ED000A30EED2
:10209000600ADFED680AB4EE600AF1EE10FA0AD5C4
:1020A000674890ED000AB5EE400AF1EE10FA02D052
:1020B00012205E4908805D480088152802DB142044
:1020C0005A490880DFF8EC080068012803D1012094
:1020D000DFF83C1A087001BD740EFF1F9A99993EF3
:1020E00001000040C00EFF1FCDCC4C3F800EFF1FF3
:1020F000840EFF1F00004040EE0BFF1F520FFF1F1A
:102100009C0EFF1FD00EFF1FCC0EFF1FBC0EFF1F2B
:10211000F80DFF1FDFF8A0080078002865D1DFF870
:10212000D807007801281BD1DFF8C4060068DFF863
:10213000641B0968884213D0DFF8B4060068B0F564
:10214000907F0DD0DFF8A8060068B0F5967F07D223
:102150000120DFF86C1808700020DFF89C17087069
:10216000DFF860080078002804D1DFF85C08007808
:1021700000280FD00020DFF84C1808700020DFF88E
:10218000481808700120DFF8181808700020DFF8E0
:102190003C180870DFF80808007801281FD1DFF824
:1021A00050060068DFF8EC1A0968884217D0DFF89B
:1021B00040060068B0F5907F11D0DFF83406006863
:1021C000B0F5967F0BD20120DFF8001808700020D0
:1021D000DFF8CC1708700020DFF8EC170870DFF884
:1021E00010060068DFF8AC1A086070470100C03FB5
:1021F0000020DFF898180870DFF89408008800289D
:1022000003D10020DFF8B0170870DFF884080088D9
:10221000012803D10120DFF8A017087070470000E3
:102220000100003F6766A63F010040404A0FFF1FC4
:10223000F20BFF1F34333340B40EFF1FB00EFF1FED
:10224000D40EFF1FB80EFF1FE0FCFFFF80B511206A
:1022500000F01AFF002810D11E2002F022F91120F0
:1022600000F012FF002808D1112000F00DFF002817
:10227000FAD00120DFF89C180860072000F004FF66
:1022800000281CD11E2002F00CF9072000F0FCFEF3
:10229000002814D1072000F0F7FE0028FAD0DFF85C
:1022A00078080068401CDFF870180860DFF86808DC
:1022B0000068042803DB0120DFF85C180860DFF801
:1022C00058080068012801D100F01EFADFF848081C
:1022D0000068022840F0E7800F2000F0D5FE0028BB
:1022E0001CD11E2002F0DDF80F2000F0CDFE0028EA
:1022F00014D10F2000F0C8FE0028FAD0DFF87C0AC5
:102300000068401CDFF8741A0860DFF8700A006883
:10231000082803DB0020DFF8641A08600E2000F0B4
:10232000B3FE00281CD11E2002F0BBF80E2000F0E6
:10233000ABFE002814D10E2000F0A6FE0028FAD033
:10234000DFF8380A0068401EDFF8301A0860DFF84E
:102350002C0A0068002803D50720DFF8201A08603F
:102360002A22DFF8180A00680100C9B2002001F033
:10237000F1FE012002F095F8102000F085FE002803
:102380003FD11E2002F08DF8102000F07DFE0028C5
:1023900037D1102000F078FE0028FAD0DFF8DC09F1
:1023A0000068012807D02CD3032814D00BD30528AC
:1023B00019D01ED325E0DFF864070088401CDFF841
:1023C0005C1708801DE0DFF8580700880A30DFF846
:1023D0005017088015E0DFF84C070088401CDFF834
:1023E000441708800DE0C7480088401CC549088094
:1023F00007E0DFF8F80300881430DFF8F0130880F6
:10240000FFE70D2000F040FE00283ED11E2002F024
:1024100048F80D2000F038FE002836D10D2000F0DD
:1024200033FE0028FAD0DFF854090068012807D0ED
:102430002BD3032814D00BD3052820D018D324E0A5
:10244000DFF8D8060088401EDFF8D01608801CE0B0
:10245000DFF8CC0600880A38DFF8C416088014E0DC
:10246000DFF8C0060088401EDFF8B81608800CE0D0
:10247000DFF8780300881438DC49088005E0A148BB
:102480000088401E9F490880FFE72A22DFF8EC08F9
:1024900000680100C9B2002001F05CFE642002F077
:1024A00000F800F0A7F9DFF870060068032840F094
:1024B0009C800F2000F0E8FD00281CD11E2001F0B8
:1024C000F0FF0F2000F0E0FD002814D10F2000F0F5
:1024D000DBFD0028FAD0DFF8A4080068401CDFF814
:1024E0009C180860DFF894080068082803DB0020C7
:1024F000DFF8881808600E2000F0C6FD00281CD107
:102500001E2001F0CEFF0E2000F0BEFD002814D1E9
:102510000E2000F0B9FD0028FAD0DFF8600800684E
:10252000401EDFF858180860DFF8500800680028DF
:1025300003D50720DFF8441808602A22DFF83C089A
:1025400000680100C9B2002001F004FE012001F082
:10255000A8FF102000F098FD002819D11E2001F0DE
:10256000A0FF102000F090FD002811D1102000F0F5
:102570008BFD0028FAD0DFF804080068002807D196
:10258000DFF80C050088401CDFF804150880FFE721
:102590000D2000F079FD002819D11E2001F081FFE7
:1025A0000D2000F071FD002811D10D2000F06CFD10
:1025B0000028FAD0DFF8C4070068002807D1DFF848
:1025C000D0040088401EDFF8C8140880FFE72A22E4
:1025D000DFF8A80700680100C9B2002001F0BAFDC9
:1025E000642001F05EFF00F089F901BD5FF4FE2078
:1025F000008880B24FF6FF71884205D05FF4FE205C
:102600000088DFF818150880DFF87807008880B2A6
:102610004FF6FF71884205D0DFF868070088DFF8C1
:1026200000150880DFF86007008880B24FF6FF7160
:10263000884205D0DFF850070088DFF8E8140880EA
:10264000DFF84807008880B24FF6FF71884204D057
:10265000DFF8380700882B490880DFF8E00700889A
:1026600080B24FF6FF71884204D0DFF8D0070088AF
:102670005E490880DFF8C807008880B24FF6FF7116
:10268000884205D0DFF8B8070088DFF80414088016
:10269000704780B57F20FDF7BFFEDFF88004028819
:1026A000002300217F20FDF7BBFEDFF874040288C1
:1026B000002308217F20FDF7B3FEDFF868040288BD
:1026C000002310217F20FDF7ABFE0E480288002377
:1026D00018217F20FDF7A4FE444802880023202112
:1026E0007F20FDF79DFEDFF8A80302880023282144
:1026F0007F20FDF795FE01BDC40EFF1F590FFF1F80
:10270000C80EFF1FF40BFF1F80B501F09FFCDFF820
:10271000342700210A2001F03BFDDFF82C0790ED63
:10272000000A0021322001F06FFD98A201210A2049
:1027300001F02EFDDFF8140790ED000A0121322090
:1027400001F062FD92A202210A2001F021FDDFF8D2
:10275000000790ED000A0221322001F055FD8DA204
:1027600003210A2001F014FDDFF8E80690ED000ACD
:102770000321322001F048FDDFF8DC2604210A2085
:1027800001F006FDDFF8D40690ED000A04213220A6
:1027900001F03AFDDFF8C82605210A2001F0F8FC17
:1027A000DFF8C00690ED000A0521322001F02CFD73
:1027B00079A206210A2001F0EBFCDFF8AC0690EDCF
:1027C000000A0621322001F01FFD74A207210A2011
:1027D00001F0DEFCDFF8940690ED000A07213220BC
:1027E00001F012FD01BD00000000FAC4F00BFF1F54
:1027F000DC0EFF1F80B501F029FC65A200210A2034
:1028000001F0C6FCDFF8480690ED000A00213C20EC
:1028100001F0FAFC63A201210A2001F0B9FCDFF803
:10282000FC02008800EE100AB8EE400A01213C20AC
:1028300001F0EAFC5CA202210A2001F0A9FCDFF809
:10284000E002008800EE100AB8EE400A02213C20A7
:1028500001F0DAFC55A203210A2001F099FCDFF80F
:10286000C402008800EE100AB8EE400A03213C20A2
:1028700001F0CAFCDFF8F82504210A2001F088FCE9
:10288000DFF8F005008800EE100AB8EE400A0421D7
:102890003C2001F0B9FCDFF8E02505210A2001F019
:1028A00077FCDFF8D805008800EE100AB8EE400A81
:1028B00005213C2001F0A8FCDFF8C42506210A20F0
:1028C00001F066FCDFF8BC0590ED000A06213C2013
:1028D00001F09AFC36A207210A2001F059FCDFF82A
:1028E000A805B0F9000000EE100AB8EEC00A0721F2
:1028F0003C2001F089FC01BD550FFF1F80B501F0A0
:10290000A5FBDFF8882500210A2001F041FC604882
:10291000008800EE100AB8EE400A00213C2001F0C9
:1029200073FCDFF86C2501210A2001F031FC2248FC
:10293000007800EE100AB8EE400A01213C2001F0B8
:1029400063FCDFF8502502210A2001F021FC0C2055
:1029500000F09AFBC0B200EE100AB8EE400A022165
:102960003C2001F051FC15A203210A2001F010FCCB
:10297000DFF82405007800EE100AB8EE400A0321C3
:102980003C2001F041FC01BDFC0DFF1F533A00004B
:10299000505F3A004D5F3A004C483A0052483A00C6
:1029A000530FFF1F503A0000443A0000563A00000F
:1029B000766E3A00A80EFF1F520FFF1F50443A00D8
:1029C000560FFF1F570FFF1F580FFF1F540FFF1FFA
:1029D00080B5DFF8E0040068400656D5DFF8D8047B
:1029E000006850F08070DFF8D0140860662000F0B6
:1029F0004BFB012819D1DFF8C404006840084000EF
:102A0000DFF8B81408605FF0FF30DFF8B414086036
:102A1000DFF8A804006840084000DFF8A014086050
:102A20000120DFF8981408602FE05FF0FF31DFF835
:102A300094040068091A1420414340F29740B1FB06
:102A4000F0F0DFF884140860DFF87C0401684FF4CC
:102A5000AA70414342F21070B1FBF0F0DFF840146D
:102A60000860DFF85804006840084000DFF84C14A4
:102A70000860DFF82C04006840F22721884204D364
:102A800040F22620DFF81814086001BD500FFF1F28
:102A9000480FFF1F80B5DFF834040068012835D1E6
:102AA000DFF82C040068401CDFF824140860FDF7F0
:102AB00035FFDFF81C040068042805DBFEF720F86A
:102AC0000020DFF80C140860FEF7FEFCFDF799FE0D
:102AD000FFF766F9FDF70AFDDFF8F8030068002844
:102AE00002D1FDF74DFE09E000220021012000F097
:102AF000D0FD00220121012000F0CBFDDFF8CC0346
:102B0000006850F00100DFF8C413086001BD000048
:102B1000510FFF1F980EFF1F1804FF1FEC0BFF1F24
:102B2000EE0BFF1FF20BFF1F80B5C82001F0B9FCB0
:102B300072B6FDF7C4FCFDF777FE62B6FDF7A7FE9F
:102B4000FDF7C5FEFDF7D9FEFDF76EFC4FF4FA70F8
:102B500001F0A7FCFFF74AFDFFF74AFBFDF78FFCEA
:102B6000022000F010FEFDF787FEFDF775FE5FF412
:102B7000E131052001F0B7FCDFF85C13552001F0CE
:102B8000E4FDDFF85813472001F0DFFDDFF85013B4
:102B90006A2001F0DAFD00214520FDF754FC0121F7
:102BA0003720FDF750FC02215A20FDF74CFC452050
:102BB000FDF73EFC052001F095FD5A20FDF738FC9D
:102BC00018E0022001F06DFCDFF804030068401CEF
:102BD000DFF8FC120860FDF7A1FEDFF8F4020068E0
:102BE000042805DBFDF78CFF0020DFF8E412086005
:102BF000FFF72CFBDFF8EC0200680028E1D0FFF7BC
:102C000048FD0C2000F040FA002818D1A7480078B1
:102C1000002805D10120B449087000F03DF80EE00D
:102C200001F014FA04E0B14A0321242001F0B0FAC3
:102C3000AD4800780028F6D00020AB49087040F27B
:102C4000DC5001F02EFCAA480168012001F094FD3F
:102C5000A849662001F09EFB0C2000F015FA002820
:102C600001D1FFF757FA0C2000F00EFA002801D12D
:102C700000F012F8834890ED000ADFED410AB4EE4F
:102C8000600AF1EE10FA02DB012092490860FFF7BA
:102C90003BFDE1E7E00EFF1F72B684480078002894
:102CA0005ED191480078002811D093480078000642
:102CB000FBD5F0209149087001207D490870002063
:102CC0008949087075480068401C744908608C4840
:102CD0000078002806D0884800780006FBD5FF2041
:102CE000864908708748007800280FD0824800780D
:102CF0000006FBD5FB208149087000206C49087054
:102D000000208049087001206849087065480078F3
:102D100000280BD0784800780006FBD5F2207749D0
:102D2000087079480068401C774908605E48007860
:102D3000002820D0704800780006FBD5F6206F49A7
:102D4000087000205749087000205749087001207A
:102D5000564908706D480068401C6C4908600AE0DC
:102D600067480078002806D0634800780006FBD545
:102D7000FF206249087062B670470000240FFF1FF1
:102D80000000344208F0070010F0070018F00700B8
:102D900072B6594800788006FBD5584800784349F8
:102DA0000978012942D1C0B2F0280AD101214E4A46
:102DB000117001213E4A117038490968491C374A8F
:102DC0001160C0B2F62810D10021364A11700021DE
:102DD000364A11700021344A117000214C4A11709A
:102DE0004A490968491C494A1160C0B2FB2808D108
:102DF00000212F4A11700021424A117000212B4AF4
:102E00001170C0B2F2280AD10121264A11700021A6
:102E1000254A11703C490968491C3B4A1160C0B2FF
:102E2000FF2809D101202B49086005E0C0B2FF2826
:102E300002D101202749086062B6704720F00700E0
:102E400028F00700D8750000680EFF1FF80DFF1F5F
:102E5000C00EFF1F700EFF1FE0750000900EFF1FD9
:102E6000E8750000940EFF1F800EFF1F840EFF1FE9
:102E7000F0750000F00BFF1FF8750000F40BFF1F4A
:102E800000760000CC0EFF1F4C0FFF1F08760000DD
:102E90001076000018760000590FFF1FE80DFF1F85
:102EA000DC0EFF1F530FFF1F540FFF1F520FFF1F9A
:102EB000550FFF1FA0C0044018C004400871034014
:102EC0000071034004710340D80EFF1F1C710340C2
:102ED000F40DFF1FA80EFF1F952A0000912D000082
:102EE000D1290000980EFF1F500FFF1FC075000072
:102EF000400FFF1F03010B0004B00E4007B00E404F
:102F0000510FFF1F560FFF1FEC0DFF1FF00DFF1F8E
:102F1000580FFF1F70B506000D0014004FF48071AC
:102F20003000C0B201F036FA6DB2002D15D16648FE
:102F3000F6B23100491150F821006349F6B232006F
:102F4000521151F822104969012216F01F0612FA97
:102F500006F631EA060646613AE05B48F6B2310011
:102F6000491150F821105848F6B23200521150F869
:102F700022004269012316F01F0083401A434A6170
:102F8000E4B2002C12D15048F6B23100491150F889
:102F900021000168012216F01F00824091434A4837
:102FA000F6B2761150F82600016011E04648F6B2FC
:102FB0003100491150F821000168012216F01F006C
:102FC000824011434048F6B2761150F82600016065
:102FD00070BD38B505000C003B48EDB22900491121
:102FE00050F82100406915F01F01C840C00703D404
:102FF0006321364801F00BFCE4B2002C12D13248B8
:10300000EDB22900491150F821000168012215F0A4
:103010001F00824091432C48EDB26D1150F82500FD
:10302000016011E02848EDB22900491150F8210053
:103030000168012215F01F00824011432248EDB2C1
:103040006D1150F82500016031BD10B504001E4817
:10305000E4B22100491150F82100406914F01F0129
:10306000C840C00703D47B21184801F0D0FB1648A4
:10307000E4B22100491150F82100012114F01F048D
:1030800011FA04F4C46010BD10B504000E48E4B297
:103090002100491150F82100406914F01F01C84077
:1030A000C00703D58C21094801F0B1FB0648E4B202
:1030B0002100491150F82100006914F01F04E0407C
:1030C00010F0010010BD00003C0BFF1FD871000084
:1030D00010B5040064B220004011C0B2002802D034
:1030E000012811D021E0A048006850F000609E49FE
:1030F00008609E48006830F090009C4908609B483A
:1031000000689A49086014E09948006850F000602F
:10311000974908609548006830F41040934908606A
:10312000924800689149086003E03321914801F01A
:103130006EFB64B2002C00F08980012C00F08680C8
:10314000032C00F08380082C4ED0092C51D00A2C7F
:1031500054D00B2C57D00C2C5AD00D2C5DD00E2CEB
:1031600060D00F2C63D0102C70D0112C64D0122C96
:1031700067D0132C6AD0142C68D01A2C66D01D2C62
:1031800064D01E2C62D0202C61D0212C5FD0232C47
:103190005DD0242C5CD0252C5FD0262C62D0272C2F
:1031A00065D0282C68D0292C6BD02A2C6ED02B2CE3
:1031B00071D02C2C74D02D2C77D02E2C7AD02F2C93
:1031C0007DD0302C00F08580312C7DD0322C00F069
:1031D0008080332C7DD0342C7BD03A2C79D03D2C80
:1031E00077D03E2C75D075E00021202001F0D2F878
:1031F00074E00021212001F0CDF86FE000210720CC
:1032000001F0C8F86AE00021082001F0C3F865E089
:103210000021222001F0BEF860E00021232001F00F
:10322000B9F85BE00021402001F0B4F856E000213D
:10323000412001F0AFF851E00021982001F0AAF8F8
:103240004CE00021992001F0A5F847E046E045E078
:103250000021802001F09EF840E00021812001F053
:1032600099F83BE00021822001F094F836E000213B
:10327000832001F08FF831E00021202001F08AF84E
:103280002CE00021212001F085F827E000212420F6
:1032900001F080F822E00021252001F07BF81DE0FC
:1032A0000021262001F076F818E00021272001F007
:1032B00071F813E000212A2001F06CF80EE00021E3
:1032C0002B2001F067F809E00021112001F062F8DD
:1032D00004E003E09A21274801F099FA10BD10B5E7
:1032E00040B204006411002249B240B200F01BF861
:1032F000214864B250F8240000680006F8D51E4842
:1033000064B250F8240002691B4864B250F82400EB
:10331000006830F08000184964B251F82410086049
:10332000100080B210BD40B20200521110F01F0018
:1033300049B2890011F00C0151F050010E4B52B20C
:1033400053F82230996004210B4B52B253F82230CB
:10335000D960C0B210F01F0050F04000064952B2D0
:1033600051F82210086070473C80044018800440E7
:1033700030800440707000001C04FF1F80B540B214
:10338000002806D0022867D04BD3032800F07F80A6
:10339000C4E0DFF84805006850F08070DFF83C2595
:1033A000106049B200290BD0022915D00ED3042990
:1033B0001ED017D3062927D020D307292AD02FE0E3
:1033C0004FF48061412000F0E5FFA7E04FF4407129
:1033D000042000F0DFFFF8E74FF44071052000F013
:1033E000D9FFF2E74FF44071062000F0D3FFECE77D
:1033F0004FF44071072000F0CDFFE6E74FF4806105
:10340000652000F0C7FFE0E74FF48061662000F020
:10341000C1FFDAE74FF48061672000F0BBFFD4E71B
:103420007CE0DFF8B804006850F00070DFF8AC24EE
:10343000106049B2002902D0012906D00BE04FF4F8
:103440004071082000F0A6FF68E04FF440710920A9
:1034500000F0A0FFF8E761E0DFF88404006850F0B6
:103460008070DFF87C24106049B2002902D0012965
:1034700006D00BE04FF440710A2000F08BFF4DE0C6
:103480004FF440710B2000F085FFF8E746E0DFF8CD
:103490005004006850F00070DFF84424106049B216
:1034A00000290BD0022915D00ED304291ED017D322
:1034B000062927D020D307292AD02EE04FF4C06157
:1034C000852000F067FF28E04FF4C061862000F0FF
:1034D00061FF22E04FF4C061872000F05BFF1CE039
:1034E0004FF4C061882000F055FF16E04FF4C06132
:1034F000892000F04FFF10E04FF4C0618A2000F0F7
:1035000049FF0AE04FF4C0618B2000F043FF04E064
:103510004FF4C0618C2000F03DFFFFE701BD2DE9B5
:10352000F04704000D0090461E0064B2002C11D03C
:1035300064B2012C02D064B2022C02D16DB2022D11
:1035400008DB64B2032C05D040F28511DFF8940348
:1035500001F05DF9290049B2200040B2FFF70EFFEB
:10356000DFF88403D0F800A04FF47A7000FB0AFA69
:103570005046000CB0FBF8F1002700E07F1C89B238
:10358000080038410128F9DAFFB2082F05DB4FF4B3
:10359000D071DFF8500301F03AF93AFA07FABAFBB2
:1035A000F8F189B2DFF8440364B240F8241064B241
:1035B000002C05D0022C12D00AD3032C16D01CE00C
:1035C00089B2481C464342F21070B6FBF0F914E091
:1035D00089B2481C46436420B6FBF0F90DE089B27D
:1035E000481C46436420B6FBF0F906E089B2481C4B
:1035F00046436420B6FBF0F9FFE7DFF8F40264B25B
:1036000050F824006DB200EBC500DFF8E42264B28C
:1036100052F824206DB202EBC502D26832F00402E7
:10362000C260DFF8CC0264B250F824006DB200EB47
:10363000C5002822C260FFB217F0070757F008073D
:10364000DFF8AC0264B250F82400076089B2DFF8FA
:10365000A00264B250F8240081600020DFF89012CC
:1036600064B251F82410C864DFF8840264B250F8E0
:1036700024006DB200EBC5001FFA89F9C0F8109064
:103680000020DFF86C1264B251F824104860BDE8E5
:10369000F087F8B504000D001600002064B2002C7D
:1036A00011D064B2012C02D064B2022C02D16DB2EE
:1036B000022D08DB64B2032C05D04FF4F371DFF860
:1036C000240201F0A4F864B2002C05D0022C17D01B
:1036D0000DD3032C1DD025E042F21170864205D394
:1036E0004FF4F671DFF8FC0101F091F81AE0652E55
:1036F00005D34FF4F871DFF8EC0101F088F811E020
:10370000652E05D34FF4FA71DFF8D80101F07FF888
:1037100008E0652E05D340F2F911DFF8C80101F089
:1037200076F8FFE7DFF8C40164B250F8240064B211
:10373000002C05D0022C10D009D3032C13D018E094
:10374000401C464342F21070B6FBF0F711E0401CFB
:1037500046436420B6FBF0F70BE0401C4643642070
:10376000B6FBF0F705E0401C46436420B6FBF0F7DB
:10377000FFE7DFF87C0164B250F824006DB200EB83
:10378000C5000761F1BD10B5040064B2012C07D07B
:1037900064B2022C04D040F2DB21524801F037F829
:1037A00064B22000012802D0022811D021E04B4849
:1037B000006850F00070494908604FF4E0610C2047
:1037C00000F0E8FD4FF4E0610D2000F0E3FD15E0AE
:1037D0004348006850F08070414908604FF4C06170
:1037E0000A2000F0D7FD4FF4C0610B2000F0D2FD9D
:1037F00004E040F213313B4801F009F83C4864B260
:1038000050F82400406D50F00400394964B251F87A
:1038100024104865364864B250F82400D0F880007F
:1038200050F00800324964B251F82410C1F8800009
:1038300000202F4964B251F82410C8644FF6FF707D
:103840002B4964B251F824108860294864B250F8BA
:103850002400D0F8800050F00100254964B251F8EE
:103860002410C1F88000224864B250F82400406D52
:1038700050F001001E4964B251F824104865002040
:103880001B4964B251F82410486010BD10B5040003
:1038900064B2012C07D064B2022C04D04FF44C71F6
:1038A000104800F0B4FF124864B250F82400406899
:1038B00000B210BD10B5040064B2012C07D064B290
:1038C000022C04D040F23E31064800F0A0FF002058
:1038D000074964B251F82410486010BD3C80044090
:1038E0003080044060710000400FFF1F280FFF1F51
:1038F0002C0BFF1FC0F3C75181B1FF2906D0C110A7
:10390000400721F0E04101F16051704741020CBFD6
:1039100040F4E0016FF000410020704700F00041EA
:1039200000020AD0B0FA80FC00FA0CF001F16051FC
:10393000A1EB0C5101EBD02140057047C11768B1D4
:103940004840401AB0FA80F29040D21CC907C2F534
:10395000846241EA025202EBD02140057047000028
:10396000F0B540F2FF7581EA030C0CF0004C15EA4B
:1039700011541DBF15EA1357AC42AF42E5E0BC41FC
:10398000C1F31301C3F31303801A994143F4801365
:1039900004D2641E4000494180185941C90241EADD
:1039A0005051B1FBF3F603FB1611A2FB0675D7EBE2
:1039B000C020A94102D2761E80185941C90241EAAD
:1039C0005051B1FBF3FE03FB1E11A2FB0E75D7EBAA
:1039D000C020A94103D2AEF1010E801859418902DD
:1039E00041EA9051760546EA8E2EB1FBF3F603FBD1
:1039F0001611A2FB0675D7EB8020A94102D2761ED4
:103A000080185941C90241EA50514EEA060EB1FBF5
:103A1000F3F603FB1611A2FB0675D7EBC020A941F4
:103A200002D2761E80185941C90241EA5051B1FBB9
:103A3000F3F703FB1711A2FB0735D3EBC020A94115
:103A400067F100070CBF004247F0010766F3D52776
:103A50004FEA1E31B80814F5806412DDBD0775F118
:103A6000004250EB0E5051EB045111F5801F5CBF2A
:103A700041EA0C01F0BD4CF07F6141F0E0410020D3
:103A8000F0BDBD076D0840EA0E5041F48011D4F13D
:103A90000104B4F120060ADAC4F120060200E04075
:103AA00001FA06F3E1401843B24015430EE0342C0E
:103AB00013DCC6F1200445EA40056D0820FA06F241
:103AC000154321FA06F0A1400D43002175F1004293
:103AD00050F1000051EB0C01F0BD00205FEA0C0139
:103AE000F0BDCFB992185B41B3FA83F704BFB2FAC5
:103AF00082F6BF190B3FB7F120062FBF02FA06F37B
:103B0000BB40C7F1200622FA06F638BF3343BA405D
:103B10001CB1E419641E33E77F4231F00041B1FA71
:103B200081F404BFB0FA80F6A4190B3CB4F120066E
:103B30002FBF00FA06F1A140C4F1200620FA06F6D4
:103B400038BF3143A0403C1B1AE7AC421ABF05EA1C
:103B50001357AF4212E050EA41061CBF52EA430637
:103B6000BFE750EA4107304661461CBF41EA0551B4
:103B7000F0BD52EA430C08BFC143F0BD00204FF432
:103B8000001616EB410F98BF16EB430F08BF16EB5C
:103B9000410F24BFC14305E016EB430F0CBF614644
:103BA0004CEA0551F0BD000070B44FF0004591EAB9
:103BB000030F40F1BD866B40841A71EB030604D2FB
:103BC0006E40001BB141121973414FF4001C1CEBF5
:103BD000410F34BF7CEB430682E00C0DA4EB13567F
:103BE000362E7BDC012E45EAC32341DC43EA5253E7
:103BF00012BFD20292025B08240545EAC12141EAC4
:103C00005051D2EBC020994125D407D1B0FA80F6AB
:103C100010FA06F162D00020203608E0B1FA81F6F1
:103C2000B140C6F1200220FA02F21143B0404FEA3F
:103C3000F474B4EB465434F001064FEA74040AD825
:103C4000D6F50016760D04F00044F04061FA06F255
:103C50005040F1404840C00A40EA415021F0004144
:103C600028BF5FEA500550F1000044EBD12135E058
:103C7000DB0A45EAC121C90AB6F120050EDD42EA98
:103C80000242120CC5F1200603FA06F6EB4042EAA6
:103C900006056D42984161F100010DE062FA06F5FA
:103CA000F240554063FA06FC82EA0C02F3405A40A7
:103CB0006D42904161EB030111F4801F05D1641E38
:103CC000620502D06D004041494121F48011430852
:103CD00075F1004350F1000041EB045170BC704796
:103CE0001CEB410F15D223F0004352EA43060BD0E0
:103CF0004FEA4C0CBCEB410F04D80C0D661E342E61
:103D0000B7DDEBE7801A994150EA410608BF002170
:103D1000E4E708BF1CEB430F28BF6FF00001DDE7AD
:103D200001F000428B1AA3F16051B1F5801F0ADB4C
:103D3000B1F17F6F1FD242EAC102C10071F10041AF
:103D400042EB507070470B15C3F10903212B10D2C1
:103D5000890241EA905180020128494141F0004125
:103D600021FA03F0C3F12003994071F10041504161
:103D70007047100070476FF0000013EB103F5CBFFE
:103D8000000E42EAC0507047B0B581EA030C0CF057
:103D9000004C40F2FF7515EA11541DBF15EA135788
:103DA000AC42AF4231E0E41923EA455343F48013B7
:103DB000C90241F0004141EA505EC702A7FB021070
:103DC0000029A2FB0E21E3FB6720E3FB6E0118BF75
:103DD00042F00102A4F580640F0302D25200404178
:103DE000494154F101046CDD470872F1004250F181
:103DF000000051EB0451A1F580115CBF41EA0C01B8
:103E0000B0BD4CEA05510020B0BD05EA1357AC42E5
:103E100014BFAF4241E050EA410E1CBF52EA430ECC
:103E200002E061460020B0BD24423C441BD15FEA61
:103E3000070EF6D0090302BF01460020AEF1140EB2
:103E4000B1FA81F7AEEB070401FA07FE0C37C7F1B0
:103E5000200100FA07F7C8404EEA000E23EA455356
:103E600043F48013AAE733F00043B3FA83F704BFA7
:103E7000B2FA82FE77440B3FE41BB7F1200E2FBF4E
:103E800002FA0EF3BB40C7F1200E22FA0EFE38BF35
:103E900043EA0E03BA40641C8AE750EA410E14BF9D
:103EA00052EA430E6FF000014FF4001717EB430F77
:103EB0008ABF194617EB410FB5E74CEA05510020C0
:103EC000B0BDD4F10104B4F120070FDAC4F120072A
:103ED000520828BF42F0010210FA07F501FA07F76D
:103EE000E1BF2A43E0403843E1400FE0352C98DC45
:103EF000C7F1200452EA400220FA07F218BF42F04C
:103F0000010231FA07F0A1400A43002172F1004298
:103F100050F1000051EB0C01B0BD002848BF4042F9
:103F200070470000010008220120DFF854341860B7
:103F300000BF00BF00BF00BF00BF0120DFF8443456
:103F4000186000BF00BF00BF00BF00BF18E0002026
:103F5000DFF83434186005E00806F8D50120DFF8F2
:103F6000283418600020DFF81C34186000BF00BF40
:103F700000BF00BF00BF0120DFF80834186049000F
:103F80001000421EC0B20028E6D17047010008228E
:103F90000020DFF8EC3318600020DFF8E833186009
:103FA00018E00020DFF8E033186005E00806F8D5D7
:103FB0000120DFF8D43318600020DFF8C833186020
:103FC00000BF00BF00BF00BF00BF0120DFF8B43357
:103FD000186049001000421EC0B20028E6D17047A8
:103FE00010B50400B1F15000C0B2FFF7CFFF2000C0
:103FF000C0B2000950F01000C0B2FFF7C7FF14F0C4
:104000000F0454F001042000C0B2FFF7BFFF10BD41
:1040100070B50400002508E02000C0B2FFF782FF61
:10402000761CF6B2802EF7DB6D1CEDB2082D0CDA93
:10403000B5F15000C0B2FFF7A9FF0120FFF7A6FFBE
:104040001020FFF7A3FF0026EBE770BD38B5002472
:1040500007E00020FFF766FF6D1CEDB2802DF8DB56
:10406000641CE4B2082C0CDAB4F15000C0B2FFF7C3
:104070008DFF0120FFF78AFF1020FFF787FF002543
:10408000EBE731BD80B50020DFF8001308600A209F
:1040900000F007FA0120DFF8F4120860AE20FFF705
:1040A00075FF0020FFF772FF1020FFF76FFF402021
:1040B000FFF76CFF8120FFF769FFCF20FFF766FF56
:1040C000A120FFF763FFC820FFF760FFA620FFF7DE
:1040D0005DFFA820FFF75AFF3F20FFF757FFD320CF
:1040E000FFF754FF0020FFF751FFD520FFF74EFFE9
:1040F0008020FFF74BFFD920FFF748FFF120FFF7A3
:1041000045FFDA20FFF742FF1220FFF73FFFDB20D9
:10411000FFF73CFF4020FFF739FF2020FFF736FF75
:104120000220FFF733FF8D20FFF730FF1420FFF749
:104130002DFFA420FFF72AFFA620FFF727FFAF20BF
:10414000FFF724FF0020FFF763FF00210020FFF7A7
:1041500047FF01BD38B5B2F12005C0B27F2801DBB1
:104160000020491CC9B2C0B2FFF73AFF00240BE09F
:10417000DFF81C02EDB2062101FB05F10844E4B2B0
:10418000005DFFF7CFFE641CE4B2062CF0DB31BD0E
:104190002DE9F84304000D0016005FF000085FF001
:1041A0000009002716E0DFF8E8015FFA88F8062129
:1041B00001FB08F108445FFA89F910F80900FFF7DC
:1041C000B1FE19F101095FFA89F9B9F1060FEADBCD
:1041D000A41D7F1CFFB2F05D002811D0FFB2F05D7E
:1041E000B0F12008E4B27F2C01DB00246D1C290013
:1041F000C9B22000C0B2FFF7F3FE5FF00009E2E7AA
:10420000BDE8F18300000000F8B52DED028B84B00D
:1042100007000D00B0EE408A00246E46B5EE408ADD
:10422000F1EE10FA0DD52D208DF800009DF800203C
:104230002900C9B23800C0B2FFF78CFFBF1DB1EE34
:10424000488ABDEEC80A10EE100A00EE100AB8EE59
:10425000C00A38EE400AB0F57A7F0EDB4FF47A716F
:1042600090FBF1F130316A46E4B211554FF47A71A6
:1042700090FBF1F201FB1200641C64280DDB642149
:1042800090FBF1F130316A46E4B21155642190FBA4
:10429000F1F201FB1200641C09E0642807DAE4B2C1
:1042A000002C04D030216A46E4B21155641C0A285F
:1042B0000DDB0A2190FBF1F130316A46E4B2115571
:1042C0000A2190FBF1F201FB1200641C09E00A28AC
:1042D00007DAE4B2002C04D030216A46E4B211556A
:1042E000641C30306946E4B20855DFED230AB4EEB1
:1042F000600AF1EE10FA2FDB641C2E206946E4B24E
:104300000855641CDFED1D0A20EE200ABDEEC00A30
:1043100010EE100A642190FBF1F130316A46E4B2EC
:104320001155642190FBF1F201FB1200641C01287D
:104330000BDB0A2190FBF1F130316A46E4B21155F2
:104340000A2190FBF1F201FB1200002804D4641C46
:1043500030306946E4B20855641C00206946E4B276
:10436000085532002900C9B23800C0B2FFF710FF6B
:1043700004B0BDEC028BF1BD18B7D13800007A440F
:104380000820FE430420FE430020FE430C20FE4391
:10439000846A000010B42C4A13684FF400740200C1
:1043A000D2B2520994402343274A1360274AC0B22D
:1043B00003005B1152F82330012410F01F029440D7
:1043C000C3F8A040214AC0B203005B1152F8232079
:1043D000C0B210F01F0042F8201010BC704710B49B
:1043E000194A13684FF400740200D2B25209944083
:1043F0002343154A1360154AC0B203005B1152F8FB
:104400002330012410F01F029440C3F8A04031F47F
:10441000E0610E4AC0B203005B1152F82320C0B223
:1044200010F01F0352F8232012F4E0621143074AF0
:10443000C0B203005B1152F82320C0B210F01F007D
:1044400042F8201010BC704738800440AC0BFF1FAE
:10445000014648B1B0FA80F18840C91CC1F58461B9
:10446000090501EBD02140057047000010B504009C
:10447000002C15D0B4F1807F03D329210F4800F020
:10448000C6F900200E4908600E48046000200E495D
:10449000086005200A49086009480068C003FBD588
:1044A00010BD10B5040003E008480068FFF7DEFF08
:1044B0002000441E0028F7D110BD0000F46F00005A
:1044C00010E000E014E000E018E000E0380FFF1F0B
:1044D000012210F01F018A40DFF8301240B240097B
:1044E00041F82020704770B504000D0064B2002C24
:1044F00008D0022C2CD018D3042C4FD03BD3052C41
:104500005FD071E0DFF80802006850F48060DFF8E7
:10451000001208604FF440716620FFF73BFF4FF434
:1045200040716720FFF736FF5EE0DFF8E4010068C6
:1045300050F40060DFF8D81108604FF44071432058
:10454000FFF728FF4FF440714420FFF723FF4BE0B3
:10455000DFF8BC01006850F48050DFF8B411086047
:104560004FF440716320FFF715FF4FF44071622054
:10457000FFF710FF38E0DFF89801006850F40050B2
:10458000DFF88C1108604FF440715020FFF702FFF4
:104590004FF440715120FFF7FDFE25E0DFF8740174
:1045A000006850F48060DFF86C1108604FF44071CF
:1045B0009920FFF7EFFE4FF440719820FFF7EAFED5
:1045C00012E0DFF85001006850F40060DFF8441199
:1045D00008604FF440718920FFF7DCFE4FF4407112
:1045E0008820FFF7D7FEFFE7DFF82C0164B250F810
:1045F0002400C07810F0F300DFF81C1164B251F809
:104600002410C870DFF8100164B250F824008078DC
:10461000DFF8041164B251F82410887064B2002CE1
:1046200002D064B2012C06D1DFF8F00001684FF42B
:104630007A70414305E0DFF8E80001684FF47A70D2
:1046400041432801B1FBF0F6B6B2B6F5005F01DBDD
:1046500041F6FF76B1FBF5F5B6B2B5EB0615ADB296
:10466000202D03DBDC212F4800F0D1F82A4864B26A
:1046700050F82400017811F0E001C6F30420014352
:10468000254864B250F824000170234864B250F801
:1046900024004670204864B250F82400817A11F05A
:1046A000E00115F01F050D431B4864B250F82400CB
:1046B0008572194864B250F82400007C50F08800DC
:1046C000154964B251F824100874134864B250F8C4
:1046D0002400C07850F00C000F4964B251F8241047
:1046E000C87070BD80B50C4940B251F82010C9782F
:1046F00051F02001084A40B252F82020D17040B257
:1047000040002D3040B2FFF7E3FE01BD00E100E0C4
:104710003480044028800440C00BFF1F380FFF1F67
:10472000400FFF1FC872000010B504004FF4007066
:1047300094FBF0F100FB1140002803D01E210B4830
:1047400000F065F80A48046010BD38B504000D009B
:10475000074800680749884203D03021034800F029
:1047600056F8044864B240F8245031BD407300004C
:1047700008ED00E00000FF1F38B505000C00002C1C
:1047800003D12221174800F042F81748006850F47E
:10479000000015490860002014490860641E144890
:1047A0006DB22901445012486DB229010844C06815
:1047B00050F001000E496DB22A011144C8600C4846
:1047C0006DB22901084480684008400008496DB274
:1047D0002A0111448860032005496DB22A01114461
:1047E000886031BD507200003C800440007003407E
:1047F00000710340BFF34F8F4148016811F4E0613D
:10480000404801433E480160BFF34F8FFEE738B593
:1048100004000D00002000F0F5F82A0021003A48BD
:1048200000F028F9002000F009F94FF47A70FFF742
:1048300038FEF2E710B50024042000F02FF9042020
:1048400000F060F9002840D1002000F0DBF80CE017
:104850002E4800F00FF9FBF7E7FD6420FFF721FE7B
:104860000020FBF7D9FDFFF7C5FF042000F04AF94F
:10487000012800D10124002000F0E0F8244800F0D5
:10488000F9F84FF4FA70FFF70CFEE4B2012CECD10A
:10489000042000F037F90028E7D105E0002000F0FF
:1048A000CDF86420FFF7FDFD042000F02BF900286F
:1048B000F4D0042000F026F90128C9D1002000F02E
:1048C000BDF83220FFF7EDFDF3E710BD10B511483C
:1048D0000468012000F096F8012000F0AFF80E48BF
:1048E000E4B20F2101FB04F100EB0102E4B221006C
:1048F0000A4800F0BFF84FF47A70FFF7D2FDEBE7FB
:104900000CED00E00400FA05F074000048750000AA
:10491000AC75000004ED00E02404FF1FF4730000F8
:1049200070B44FF0004591EA030F7FF545A96B4045
:10493000841A71EB030603D2001BB14112197341B3
:104940004FF4001C1CEB410F34BF7CEB430442E0EE
:104950000C0DA4EB1356352E4FDC45EAC323DB0ABE
:1049600045EAC121C912B6F120050DDD63FA05F64D
:10497000EB4086EA0305124218BF45F00105C01856
:1049800051F100010CD213E062FA06F5F2405540F5
:10499000F3415A40B340F3405A408018594107D37D
:1049A00049085FEA30005FEA350528BF45F0010598
:1049B00001F58011420875F1004250F1000041EB11
:1049C00004514E0016F5001F70BC38BF7047002020
:1049D000090D090570471CEB410F10D252EA43063E
:1049E0000BD0BCEB410F05D80C0DAB43661E342E2B
:1049F000B6DD02E0AB438018594170BC704770BC13
:104A00007047000010B5040064B2042C07DA0122DC
:104A10000121174864B2005DFEF77CFA0DE0042422
:104A200006E001220121124864B2005DFEF772FA2D
:104A30002000441E40B20028F3D110BD10B5040080
:104A400064B2042C05DA0A4864B2005DFEF7FDFA90
:104A50000BE0042404E0064864B2005DFEF7F5FABA
:104A60002000441E40B20028F5D110BD0000000017
:104A7000E00BFF1F0EB4C0B5024603A80021019051
:104A8000009101AB0121044878440C3000F052F849
:104A900006BC5DF810FB00BFFF2A000010B5040043
:104AA00064B2082C0DDA00220021214864B2005DB6
:104AB000FEF730FA03211E4864B2005DFFF78FFC59
:104AC00013E008240CE000220021194864B2005DC4
:104AD000FEF720FA0321164864B2005DFFF77FFC61
:104AE0002000441E40B20028EDD110BD80B5104911
:104AF00040B2085CFEF7C8FA002801D1002000E0AF
:104B0000012002BD10B50400200040B2FFF7EEFF07
:104B100000280AD10A20FFF7C4FC200040B2FFF7AA
:104B2000E5FF002801D1002000E0012010BD0000B9
:104B3000D80BFF1F2DE9F0439FB081462698DFF880
:104B4000CC8A8DF83B00174600201E4602910B9040
:104B50000FF270144FF0FF350AE017F8011B0298AE
:104B6000C8470028029000F09A800B98401C0B90D8
:104B7000387850B12528F0D1002000210590069109
:104B80000790089109900A9103E00B989EE041F08C
:104B9000010117F8010F2028F9D023280DD02B2868
:104BA00004D02D2806D030280AD07AE041F0020146
:104BB00089B2EEE741F00401FAE741F00801F7E7B6
:104BC00041F01001F4E700200D9009E00D984045F8
:104BD00005DA00EB800302EB4302303A0D927F1CB2
:104BE0003A78A2F130000A28F0D33A782E2A18BF7A
:104BF0000C9523D117F8010F2A2807D130683060AF
:104C00007F1C50F8042B30600C9217E02D280CBF4D
:104C100017F8010B002000220C920AE040B90C9A10
:104C2000424505DA02EB820203EB4203303B0C9370
:104C30007F1C3B78A3F130020A2AEFD3ADF838107D
:104C40002046397800F062FE08B117F8010B8DF8A4
:104C50003A009DF83A00682804BF3978682903D1E2
:104C600062208DF83A0007E06C2804BF38786C2881
:104C700003D171218DF83A107F1C10A804903246A0
:104C800017F8013B6946484600F060F838B910AAA9
:104C90006946484600F08CF900287FF569AF284640
:104CA00014E02A288FD13068306050F8042B30602F
:104CB000002A0D9204D5524241F004010D9289B2AE
:104CC0007F1C92E7686A6C747A4C00001FB0BDE8E4
:104CD000F083622820D0682811D06A2803D06C287D
:104CE00027D0712825D10868C01D20F00700086072
:104CF000D0E9002308300860194610467047002AA2
:104D00000A680A60106803D0121D0A6000B217E03A
:104D1000121D0A6080B217E0002A0A680A60106853
:104D200003D0121D0A6040B20AE0121D0A60C0B230
:104D30000AE0002A0A680A60106803D0121D0A609F
:104D4000C1177047121D0A600021704770B51C46DC
:104D50000D46B4F125002E69114600F017811C386C
:104D60006AD0001F022867D9133843D0093863D0AE
:104D7000801E16D0401E1ED0401E02285CD9001F87
:104D800019D0401F00F08380401E33D0401E00F039
:104D9000CD80C01E00F0D880801E2BD0C01E29D030
:104DA000FAE06869421C6A610A680A6052F8043BCA
:104DB0000A603354FAE095F83A000122FFF789FFC0
:104DC000C5E900010023994204DA6869411C696160
:104DD0002D210DE0288F810704D56869411C696188
:104DE0002B2105E0C00722D56869411C696120219B
:104DF00031541CE095F83A000022FFF76AFFC5E93C
:104E0000000195F83800010711D5D5E900230020ED
:104E1000834208BF82420AD044F02000782806D19D
:104E2000686930213154401C411C69613454214669
:104E300068693044E86083E00868C01D20F007001E
:104E40000860D0E9002308300860C5E90023D5E9EF
:104E50000001C80F04D06869411C69612D210DE073
:104E6000288F810704D56869411C69612B2105E001
:104E7000C00704D56869411C696120213154686903
:104E80003044E8602146284600F0C1F98EE005F183
:104E90003A02507820B14FF0FF340FF610205EE058
:104EA0001078622808D0682824D06A2812D06C288C
:104EB0002ED071280ED02BE00A680A6052F8040B3D
:104EC0000A6020B94FF0FF340FF6F81047E0E96AA6
:104ED00001706BE00A680A6052F8040B0A6020B99E
:104EE0004FF0FF340FF6DC1039E0EA6AD317C0E95F
:104EF00000235BE00A680A6052F8040B0A6020B9DC
:104F00004FF0FF340FF6BC1029E0E96A01804DE054
:104F10000A680A6052F8040B0A6020B94FF0FF34A7
:104F20000FF6A0101BE0E96A01603FE00A680A6022
:104F300052F8040B0A600021C5E90001EE607821F7
:104F4000284600F0BCF831E00868086050F8044BCF
:104F50000860EC603CB94FF0FF340FF6801000F0B1
:104F6000E1FC201A70BD2E6B002E04D5204600F007
:104F7000FBFC044608E032460021204600F010FD0C
:104F8000002814BF041B3446AC610FE06869411C63
:104F900069612521315409E06869411C6961252254
:104FA0003254200002D0481C68617454002070BD47
:104FB0002DE9F0410F4682B00646796B7869BC6AEC
:104FC000091A386A091AB869091A786A091AF8694F
:104FD000091A97F838000C1B410790460FD420217E
:104FE000002C8DF800100ADD254601236A4639465B
:104FF000304600F044FC00285DD16D1EF5D17B6980
:1050000042463946304600F03AFC002853D1302061
:105010008DF800003D6A002D09DD01236A463946FE
:10502000304600F02CFC002845D16D1EF5D1BB693F
:10503000FA683946304600F022FC00283BD1302087
:105040008DF800007D6A002D08DD01236A4639468F
:10505000304600F014FC70BB6D1EF6D1F868B969DB
:10506000FB6942183946304600F009FC18BB302075
:105070008DF80000BD6A002D08DD01236A4639461F
:10508000304600F0FCFBB0B96D1EF6D197F8380041
:1050900041070DD52021002C8DF8001008DD0123DB
:1050A0006A463946304600F0EAFB20B9641EF6D164
:1050B0000020BDE8F6814FF0FF30BDE8F6812DE914
:1050C000F04704468A462569BAF16F0F08BF0827E2
:1050D00005D04AF02000782814BF0A2710273C2664
:1050E000D4E90001BAF1640F18BFBAF1690F804624
:1050F000894607D10B4600218B4203DAD8F100081C
:1051000069EB49090020814508BF80451FD1206B0C
:10511000E8B9082F47D194F83800010743D530206B
:105120003B2685F83B003EE000280ED594F8380079
:1051300000F01400102808D1626B6069121A206A0E
:10514000121A561A002EC8BF2662BDE8F0874046E4
:1051500049463A46FB1700F04FFC3032761ED2B279
:105160003A2AA4BFAAF151008218AA5540464946DE
:105170003A46FB1700F040FC8046894600208145F6
:1051800008BF804503D0E068A9198842DFD3082F03
:1051900009D194F83800010705D5A95D302902D05E
:1051A000761E3020A855A819E060C6F13C01206B9E
:1051B000A1618142B8DA411A21624FF6EF70218F66
:1051C00001402187BDE8F0872DE9D04306460F4610
:1051D00014464FF00008DFF8389412E0E00707D5D6
:1051E00042464B4630463946FEF7CEFD06460F4650
:1051F0004046494642464B46FEF7C6FD641080468F
:105200008946002CEAD130463946BDE8D0832DE9E5
:10521000F04F0446884648F020008DB0D4E9009B4A
:10522000612802AE0BD0206B002802D50620206337
:1052300005E001BF48F02000672801212163D4E97F
:1052400000A568004015401C0DD129030BD0A8F122
:10525000610103201A29A06102D20FF29C6110E0C3
:105260000FF298610DE068004015401C0ED1290333
:105270000CD1A8F1610103201A29A06116D30FF205
:105280008461E068032200F02FFCD1E125F00041A9
:10529000B1F5801F2AF0000211D20027B94208BFE1
:1052A000BA42019705D15046294613E00FF25061EA
:1052B000E7E701AA5046294600F06AFC0AE0DFF859
:1052C000542302EB1150DFF8501301900D40D349E5
:1052D00050462943C4E9000148F02002612A0DD15B
:1052E000E06830210170811CE160B8F1610F0CBFF2
:1052F0007821582141706069801C6061D4E900A563
:1053000025F0004300202AF00002834204BF8242BD
:10531000002300F0548148F02000612840F09F8075
:10532000206B00284CBF2120401C00904846009F65
:105330007F1C59460022002300F062FCAB46019816
:105340008DF8082038BF8BF0004BD146001F002F8E
:1053500001900DF1090A40F3408140F2FF75484683
:1053600059460022002300F063FC80F036815A4643
:105370005000400D00F11C010FD000290DDDA942A5
:1053800005DBA7490BF000400143002012E06FF35A
:105390001E5242EA015148460CE02BF0004129F030
:1053A0000000994208BF98420FBF59461C22594637
:1053B00000F056FC81468B4600F0F0FCFF1F002FEA
:1053C000064609DDFEF7BAFA02460B46484659463C
:1053D000FFF7A6FA81468B460AF10700072104E091
:1053E00006F00F0200F8012D3611002E01DD491ED6
:1053F000F6D5491E5CBF002200F8012DF9D5E7E083
:105400000020194602AA0A4400E05B1E12F8015966
:10541000491E8542F9D00F2804D10DF10900425CE4
:10542000521C4254002904D50198001D02AE5B1C99
:105430000190581E0CD43118A8F13A050A78303280
:10544000D2B2392AC8BFAA18401E01F80129F5D5E1
:10545000206B002840F1B280591E2163AEE048461F
:1054600059460022002300F0CBFB019938BF8BF096
:10547000004B47F2975041436A4A91FBF2F2019286
:10548000D2F1070204DD48465946FFF79DFE0AE0C7
:10549000524200206449FFF797FE02460B464846F9
:1054A0005946FEF75DFA814648F020006628206BD9
:1054B0005E4D06BF019E0A3606263618142EC8BF5A
:1054C000142630208B468DF808000DF10907002EB8
:1054D00033DD4846594600F07FFC01460A4607F195
:1054E000080304200A27B2FBF7F707EB870EA2EBAD
:1054F0004E02303203F8012C0A22B7FBF2F202EB23
:10550000820EA7EB4E073037401E03F8027DE9D12B
:10551000083E002E03F10807D9DD0846FEF798FF84
:1055200002460B4648465946FFF7FAF900222B4639
:10553000FEF72AFC81468B46CBE70DF10900381AAD
:105540000DF1090604E00199491E401E0191761CE7
:1055500031783029F7D048F02002662A02D101992B
:10556000491C05E048F0200165290CBF01210021FC
:10557000236BCB189842B8BF431E002B1ED4834226
:1055800004DAF05C3528A8BF392000DA302019464B
:10559000721E02EB010900E05B1E19F801B9491EF9
:1055A0008345F9D0392802D1705C401C7054002921
:1055B00004D50198401C16465B1C0190019800B26E
:1055C00000901BB232464146204600F034F82FE0EE
:1055D000002F00F1070A3FF7C2AE0DF10900AAEB58
:1055E000000100980B468142C8BF0346002B0DF115
:1055F00009063FF52DAF8B42BFF602AF0DF1090052
:10560000C05C07287FF7FCAE0F20FAE6CBCCCC0CB1
:105610000000244002FCFFFFFFFF0F800000E03F7E
:105620000000F07FA08601000000F03F84D7974182
:105630000DB0BDE8F08F2DE9F043064687B01F4658
:10564000356B002F904602DC01270FF2BC288946FB
:10565000BDF9384049F02000662808BF641C12D00C
:10566000672877D114F1040F7ADBAC4278DA96F828
:105670003800641C010702D4AF42B8BF3D4624B2D3
:105680002D1B48BF002524B2F068B169002C22DC34
:105690004A1C30234354002D03DC96F838000107E0
:1056A00003D5F0682E218154521CE542B8BF6C42EC
:1056B00024B265196042BD42B8BF2F46B261706224
:1056C0003FB2F761F068B3693A464146184400F0CA
:1056D0000BFAED1B18E022469742084416DA3A46C8
:1056E000414600F001FAB1697918E01B002DB16163
:1056F000706203DC96F83800020705D5F0682E22A8
:105700004254F069401CF061B562A1E0414600F0EE
:10571000EBF9B06920183F1B002D03DC96F8381018
:105720000A0703D5F1682E220A54401CB0613FB22B
:10573000BD42B8BF2F46F068B3693FB23A4608EBA6
:105740000401184400F0D0F9B0693818ED1BB061BD
:1057500075627DE0B9F1610F14D14FF0700916E068
:10576000AF4204DA96F838100A0758BF3D466D1E5E
:1057700048BF0025B9F1670F14BF4FF045094FF03E
:10578000650904E0B9F1410F08BF4FF05009B16954
:10579000F368481CB061002D18F8012B5A5403DC43
:1057A00096F838100A0717D5F268431CB3612E210A
:1057B0001154002D10DD7F1E3FB2BD42B8BF2F46F1
:1057C000F0683FB23A464146184400F08DF9B0699E
:1057D0003818ED1BB0617562F068B1690844002C9F
:1057E00080F8009004D42B21417000F1020804E0FD
:1057F0002D21417000F10208644200256F4608E047
:105800000A2203A800F0FCFA049807F8010B6D1CAB
:10581000039C21B20029F3DC012D06DC49F02000B5
:10582000652804BF302008F8010B4DB9302008F876
:10583000010B07E06D1E1DF80500303008F8010B64
:10584000002DF7DCF068B1690844A8EB0000F061B6
:1058500096F8380000F0140010280DD17169B06975
:105860004118706A4118F0694118B06A4118706BAC
:105870008142BCBF411A316207B0BDE8F083F8B580
:1058800005460E4617461C46002074B117F8011B4A
:10589000B068A847B06030B1F06A401CF0620020E8
:1058A000641EF3D1F2BD4FF0FF30F2BD7072696E2D
:1058B00074665F733A20256E20646973616C6C6F47
:1058C000776564007072696E74663A206261642064
:1058D000256E20617267756D656E74007072696EF9
:1058E00074665F733A206261642025732061726779
:1058F000756D656E740000006E616E004E414E0065
:10590000696E6600494E4600300000000278C9B258
:105910008A421AB11CBF10F8012FF9E718BF002006
:105920007047000080B508B90FF21C0005490B68EC
:105930001BB122220021984701E000F068FA2220E2
:1059400002BD0000440FFF1F636F6E7374726169C4
:105950006E742068616E646C65723A2062616420C6
:105960006D6573736167650000F10103810704D001
:1059700010F8011B89B18107FAD10268B2F1013137
:10598000914311F0803F04BF50F8042FF6E710F860
:10599000011B11B110F8011BFBE7C01A7047000092
:1059A000C9B2830706D0521E22D310F8013B994298
:1059B000F7D11FE0083A13D302F1040241EA0121B2
:1059C00041EA014150F8043B121F21BF4B40A3F1B3
:1059D000013C2CEA030C1CF0803FF3D0C9B2001F3D
:1059E000083210F8013B521E28BF91EA030FF8D885
:1059F00018BF0120401E70471B4213D1094236D107
:105A00002AB18446B0FBF2F002FB10C2704700F0EE
:105A100001BAFCD30022002370470B0002000021D2
:105A200000207047904271EB030CF6D370B5B1FAC9
:105A300081F4B3FA83F52C1BA340C4F1200532FA9C
:105A400005F63343A2405FF00046E64002E05B0803
:105A50005FEA3202841A71EB030524BF204629460F
:105A60007641F4D302000B003000002170BD012A02
:105A7000CFD970B5140C20D0B1FA81F4B2FA82F506
:105A8000C4F120046419B4F12006D6D3B2405FF00B
:105A90000044F440002502E052085FEA3303C61ACE
:105AA00071EB020E24BF3046714664416D41F3D361
:105AB00002000B002000290070BD0C46B1FBF2F182
:105AC00002FB11452D0445EA1045B5FBF2F402FB3B
:105AD000145580B240EA0545B5FBF2F002FB1052C6
:105AE00040EA044070BD000062B38B0708D0521E2C
:105AF00011F8013B00F8013B00F024808B07F6D140
:105B0000830740F0208000BF103A07D330B4B1E8DB
:105B10003810103AA0E83810F9D230BC530724BF2F
:105B2000B1E80810A0E8081044BF51F8043B40F861
:105B3000043BD20724BF31F8022B20F8022B44BFCC
:105B40000B7803707047121F17D35B0009D151F80F
:105B5000043B20F8023B1B0C121F20F8023BF6D23C
:105B60000BE051F8043B00F8013B1B0A20F8023B14
:105B70001B0C121F00F8013BF3D238BF121D521E3E
:105B800024BF11F8013B00F8013BF8D87047000032
:105B900010B5144600F002F8226010BDC1F30A539C
:105BA00043B14A0012F5001F28D2A3F2FE32A1EB46
:105BB0000251704750EA410C20D001F0004C31EA0C
:105BC0000C01B1FA81F204BFB0FA80F3D2180B3A9B
:105BD000B2F120032CBF00FA03F1914041EA0C011D
:105BE0003EBFC2F1200C20FA0CF319439040524200
:105BF00040F2FD33D21A01EB035170470022704787
:105C00004FF4001C1CEB410F94BF1CEB430F09E049
:105C100041EA030C50EA4C0C52EA0C0C03D29942B4
:105C200008BF9042704714BF8B4282427047000009
:105C30004FF4001C1CEB410F94BF1CEB430F09E019
:105C400041EA030C50EA4C0C52EA0C0C03D28B4292
:105C500008BF8242704714BF9942904270470000CB
:105C6000124254D440F2FF7C1CEA11530FD063451A
:105C700031D09B1863453CBF01EB0251704701F0E6
:105C8000004141EA0C510020AFF30080704750EA18
:105C9000410320D001F0004C91EA0C011CD0B1FA74
:105CA00081F30B3B9A420DD9D21A994051EA0C016B
:105CB000C3F1200C20FA0CFC61449840531C40F2C4
:105CC000FF7CD7E7914041EA0C01C2F1200C20FA99
:105CD0000CF3194390407047B0FA80F31533202B32
:105CE000E0D3202AEED3203A203B9A4209D9D21A97
:105CF00000FA03F141EA0C010020531C40F2FF7C42
:105D0000B8E700FA02F141EA0C0100207047524264
:105D100040F2FF7C1CEA11530DD06345DBD0B2EB9F
:105D2000030C3CBFA1EB025170470CF1010221EAC8
:105D3000035141F4801150EA410CCCD001F0004CE9
:105D4000352A27DC30B481EA0C01B2F1200309DAEC
:105D5000C2F12003044601FA03F5D0402843D140A4
:105D60009C400CE0C3F12002450020FA03F418BF68
:105D700044F0010421FA03F091400C43002174F136
:105D8000004550F1000051EB0C01244230BC7FF47F
:105D90007BAF70476146002076E70000C1F30A53ED
:105DA00040F2FE329B1A14DDD3F120034FEAE17278
:105DB00008DDC90241EA505141F00040D840801846
:105DC0005040704703F2E13010B1D24382F00040FE
:105DD0007047002070470000400D491840EA8120BC
:105DE0000CD2490DA1F58061491C40F0004005DB53
:105DF000D1F11F0154BFC840C01770470020704741
:105E000091FBF2F303FB1211C0E90031704701204E
:105E100000F002B87047000080B500F007F8024AB1
:105E200011001820ABBEFBE72600020010B500F001
:105E300031F802000023DB4300241068984203D0AD
:105E400011000220ABBE14605068984203D0111DAF
:105E50000220ABBE546010BD10B584B0040000F049
:105E600019F8A100421810680021C94388420DD1D9
:105E700007A00090002C01D1002000E00420019038
:105E80000320029069460120ABBE106004B010BD33
